{
  "contractName": "ExpenseTracker",
  "abi": [
    {
      "inputs": [],
      "payable": false,
      "stateMutability": "nonpayable",
      "type": "constructor"
    },
    {
      "constant": true,
      "inputs": [],
      "name": "balance",
      "outputs": [
        {
          "internalType": "uint256",
          "name": "",
          "type": "uint256"
        }
      ],
      "payable": false,
      "stateMutability": "view",
      "type": "function"
    },
    {
      "constant": true,
      "inputs": [],
      "name": "expense",
      "outputs": [
        {
          "internalType": "uint256",
          "name": "",
          "type": "uint256"
        }
      ],
      "payable": false,
      "stateMutability": "view",
      "type": "function"
    },
    {
      "constant": true,
      "inputs": [],
      "name": "income",
      "outputs": [
        {
          "internalType": "uint256",
          "name": "",
          "type": "uint256"
        }
      ],
      "payable": false,
      "stateMutability": "view",
      "type": "function"
    },
    {
      "constant": true,
      "inputs": [],
      "name": "trnCount",
      "outputs": [
        {
          "internalType": "uint256",
          "name": "",
          "type": "uint256"
        }
      ],
      "payable": false,
      "stateMutability": "view",
      "type": "function"
    },
    {
      "constant": true,
      "inputs": [
        {
          "internalType": "uint256",
          "name": "",
          "type": "uint256"
        }
      ],
      "name": "trnList",
      "outputs": [
        {
          "internalType": "uint256",
          "name": "tId",
          "type": "uint256"
        },
        {
          "internalType": "string",
          "name": "tName",
          "type": "string"
        },
        {
          "internalType": "uint256",
          "name": "tAmount",
          "type": "uint256"
        }
      ],
      "payable": false,
      "stateMutability": "view",
      "type": "function"
    },
    {
      "constant": false,
      "inputs": [
        {
          "internalType": "string",
          "name": "_tName",
          "type": "string"
        },
        {
          "internalType": "uint256",
          "name": "_tAmount",
          "type": "uint256"
        },
        {
          "internalType": "uint16",
          "name": "tType",
          "type": "uint16"
        }
      ],
      "name": "setTransaction",
      "outputs": [],
      "payable": false,
      "stateMutability": "nonpayable",
      "type": "function"
    },
    {
      "constant": true,
      "inputs": [],
      "name": "getValues",
      "outputs": [
        {
          "internalType": "uint256",
          "name": "",
          "type": "uint256"
        },
        {
          "internalType": "uint256",
          "name": "",
          "type": "uint256"
        },
        {
          "internalType": "uint256",
          "name": "",
          "type": "uint256"
        }
      ],
      "payable": false,
      "stateMutability": "view",
      "type": "function"
    }
  ],
  "bytecode": "0x608060405234801561001057600080fd5b50600080819055506000600181905550600060028190555061052d806100376000396000f3fe608060405234801561001057600080fd5b506004361061007d5760003560e01c806388b450461161005b57806388b4504614610181578063b69ef8a81461019f578063c63460d6146101bd578063e2077359146101db5761007d565b806308ee3fe11461008257806319eb4a9014610137578063466663cb14610163575b600080fd5b6100ae6004803603602081101561009857600080fd5b81019080803590602001909291905050506102ae565b6040518084815260200180602001838152602001828103825284818151815260200191508051906020019080838360005b838110156100fa5780820151818401526020810190506100df565b50505050905090810190601f1680156101275780820380516001836020036101000a031916815260200191505b5094505050505060405180910390f35b61013f610370565b60405180848152602001838152602001828152602001935050505060405180910390f35b61016b610388565b6040518082815260200191505060405180910390f35b61018961038e565b6040518082815260200191505060405180910390f35b6101a7610394565b6040518082815260200191505060405180910390f35b6101c561039a565b6040518082815260200191505060405180910390f35b6102ac600480360360608110156101f157600080fd5b810190808035906020019064010000000081111561020e57600080fd5b82018360208201111561022057600080fd5b8035906020019184600183028401116401000000008311171561024257600080fd5b91908080601f016020809104026020016040519081016040528093929190818152602001838380828437600081840152601f19601f82011690508083019250505050505050919291929080359060200190929190803561ffff1690602001909291905050506103a0565b005b6003602052806000526040600020600091509050806000015490806001018054600181600116156101000203166002900480601f0160208091040260200160405190810160405280929190818152602001828054600181600116156101000203166002900480156103605780601f1061033557610100808354040283529160200191610360565b820191906000526020600020905b81548152906001019060200180831161034357829003601f168201915b5050505050908060020154905083565b60008060008054600154600254925092509250909192565b60025481565b60015481565b60005481565b60045481565b600460008154809291906001019190505550604051806060016040528060045481526020018481526020018381525060036000600454815260200190815260200160002060008201518160000155602082015181600101908051906020019061040a929190610453565b506040820151816002015590505060008161ffff161415610435578160015401600181905550610441565b81600254016002819055505b60025460015403600081905550505050565b828054600181600116156101000203166002900490600052602060002090601f016020900481019282601f1061049457805160ff19168380011785556104c2565b828001600101855582156104c2579182015b828111156104c15782518255916020019190600101906104a6565b5b5090506104cf91906104d3565b5090565b6104f591905b808211156104f15760008160009055506001016104d9565b5090565b9056fea265627a7a72315820043545168bc9122de1c7fb667174320a4212d2de82c61467e89cd278ef89c15a64736f6c63430005100032",
  "source": "pragma solidity >=0.5.0 <0.6.0;\r\ncontract ExpenseTracker{\r\n    \r\n    //@define Variables\r\n    uint public balance;\r\n    uint public income;\r\n    uint public expense;\r\n    \r\n    struct transactionList{\r\n        uint tId;\r\n        string tName;\r\n        uint tAmount;\r\n    }\r\n    \r\n    // Read/write candidates\r\n    mapping(uint => transactionList) public trnList;\r\n    \r\n    // Store Transactions Count\r\n    uint public trnCount;\r\n    \r\n    constructor() public{\r\n        balance = 0;\r\n        income = 0;\r\n        expense = 0;\r\n    }\r\n    \r\n    function setTransaction(string memory _tName, uint _tAmount, uint16 tType) public\r\n    {\r\n        trnCount++;\r\n        trnList[trnCount] = transactionList(trnCount,_tName,_tAmount);\r\n\r\n        if(tType == 0){\r\n            income = income + _tAmount;\r\n        }\r\n        else{\r\n            expense = expense + _tAmount;\r\n        }\r\n        \r\n        balance = (income - expense);\r\n    }\r\n    \r\n    function getValues() public view returns(uint, uint, uint){\r\n     return(balance, income, expense);   \r\n    }\r\n}",
  "sourcePath": "C:/Users/S.Shahzad Hussain/ExpenseTracker/contracts/ExpenseTracker.sol",
  "compiler": {
    "name": "solc",
    "version": "0.5.16+commit.9c3226ce.Emscripten.clang"
  },
  "schemaVersion": "3.4.1",
  "updatedAt": "2021-06-26T21:37:17.240Z",
  "devdoc": {
    "methods": {}
  },
  "userdoc": {
    "methods": {}
  }
}